:100000000C9434000C9451000C9451000C94510049
:100010000C9451000C9451000C9451000C9451001C
:100020000C9451000C9451000C9451000C9451000C
:100030000C9451000C9451000C9451000C945100FC
:100040000C9451000C9451000C9451000C945100EC
:100050000C9451000C9451000C9451000C945100DC
:100060000C9451000C94510011241FBECFEFD8E026
:10007000DEBFCDBF11E0A0E0B1E0EAE2F3E002C0F4
:1000800005900D92A231B107D9F721E0A2E1B1E0CC
:1000900001C01D92AA31B207E1F70E9470000C94D2
:1000A00093010C94000080917C00807F80937C0001
:1000B00080917C00856080937C0080917A008064D0
:1000C00080937A0080917A0084FFFCCF80917A003F
:1000D000806180937A0080917800909179000895F2
:1000E00017B88FEF8AB98FEB8BB985E480937C00CA
:1000F00087E880937A0010921901109218018BE022
:10010000282E312C9AE0492E512C29E0622E712C98
:1001100038E0832E912CC7E0D0E006E010E045E007
:10012000E42EF12C54E0C52ED12C63E0A62EB12C88
:1001300010921701109216011092150110921401DD
:100140000E94530090931301809312012091140197
:1001500030911501AC01421B530B9A012B5F3F4FAD
:100160002B30310568F582975CF1809116019091F2
:100170001701019690931701809316018FED9EE26F
:100180000197F1F700C000008091120190911301D6
:10019000909315018093140120911601309117015D
:1001A000243131056CF29C01225231092F31310585
:1001B00060F481E090E0909319018093180118C0D9
:1001C0001092170110921601D9CF9C0128543109C1
:1001D0002F31310518F482E090E0EDCF9C012357D8
:1001E00031092F313105B8F4B0921901A0921801EC
:1001F0000E94530090931301809312018297C4F7D9
:10020000E09118010E2E000CFF0BE050FF4F808193
:1002100080688BB98DCF9C01265B31092F31310568
:1002200028F4D0921901C0921801E2CF9C01275204
:1002300031402F31310528F4F0921901E092180174
:10024000D7CF9C012D5831402F31310528F4109320
:10025000190100931801CCCF9C01245F3140213556
:10026000310528F4D0931901C0931801C1CF9C0126
:10027000275A32402F31310528F49092190180928B
:100280001801B6CF9C0133502F31310528F47092FC
:10029000190160921801ACCF9C01265833402232DC
:1002A000310528F41092190110921801A1CF9C0178
:1002B0002C5D31402232310528F4509219014092D0
:1002C000180196CF9C012B5233402331310528F47D
:1002D00030921901209218018BCF9C01215C334090
:1002E0004CE050E02D31310588F09C01245E334014
:1002F0002C31310518F48DE090E05DCF9C01205445
:1003000033402433310538F44EE050E05093190166
:10031000409318016DCF835B9340489708F068CFF6
:0A0320008FE090E048CFF894FFCF83
:10032A003F065B4F666D7D077F6F777C395E79711B
:02033A000000C1
:00000001FF
